:1000000012C021C020C01FC01EC01DC01CC01BC00C
:100010001AC019C018C017C016C015C014C013C02C
:1000200012C011C010C011241FBECFE5D1E0DEBF49
:10003000CDBF20E0A0E6B0E001C01D92A03AB2071B
:10004000E1F7F9D051C1DCCFFF920F931F93CF930B
:10005000DF9300D000D01F92CDB7DEB78C0197FFA1
:1000600005C08DE2C8D011950195110980E02AE004
:1000700030E0FF24F394F80EE1E0F0E0EC0FFD1F18
:10008000E80FF11DC801B90108D1805D80838B01A3
:100090006115710511F08F2DECCFFF2039F0FE01B5
:1000A000EF0DF11D8081A7D0FA94F7CF0F900F903C
:1000B0000F900F900F90DF91CF911F910F91FF90B4
:1000C0000895CF93DF93EC01FE018491882319F00A
:1000D00092D02196F9CFDF91CF9108958AE08BC01D
:1000E00097B18F70907F892B87B9369A349BFECF5A
:1000F00084B195B1089510BE88E08FBD17BC16BCC1
:1001000010B819BC83E085BD8FEF8BBD80B78268C6
:1001100080BFB99A80B7816280BFBB9A87B589607A
:1001200087BDBD9A08959C0177FD07C0611584E0E5
:1001300078072CF06FEF73E002C060E070E0CB0155
:1001400062E170E0AAD06E5B7F4F15BC21153105CE
:1001500011F46DBD08952130310511F46CBD089581
:100160002230310509F46ABD089510BE84E08FBDC8
:1001700017BC16BC10B819BC83E085BD8FEF8BBDD2
:1001800080B7826880BFB99A80B7816280BFBB9A0E
:1001900087B5896087BDBD9A089575BD009711F434
:1001A0006DBD08958130910511F46CBD08950297DD
:1001B00009F46ABD08951FC03CD090E0089539D07D
:1001C00090E00895009741F0EFECF7E03197F1F7F8
:1001D00000C000000197F6CF0895009731F022E0AB
:1001E0002A95F1F700C00197F8CF0895BC9AC49AF8
:1001F000BE98C69A0895C498EFE3F3E03197F1F7FB
:1002000000C0000098E080FF02C0C49A01C0C498FA
:10021000EFE3F3E03197F1F700C0000086959150CD
:1002200091F7C49A8FE393E00197F1F700C00000C3
:10023000089580E0089517B887E886B988E88ABBF2
:1002400087E287BB8BB380658BBB88B3886588BB2F
:10025000CDDF60919A0070919B0080919C009091FD
:100260009D000AD090939F0080939E0000000000A4
:10027000099580E090E008950024552704C0080EF9
:10028000591F880F991F009729F076956795B8F345
:100290007105B9F7802D952F089597FB072E16F459
:1002A000009406D077FD08D00BD007FC05D03EF4B3
:1002B000909581959F4F0895709561957F4F089512
:1002C000AA1BBB1B51E107C0AA1FBB1FA617B7077C
:1002D00010F0A61BB70B881F991F5A95A9F7809598
:0C02E0009095BC01CD010895F894FFCF6B
:00000001FF
