:1000000012C021C020C01FC01EC01DC01CC01BC00C
:100010001AC019C018C017C016C015C014C013C02C
:1000200012C011C010C011241FBECFE5D1E0DEBF49
:10003000CDBF10E0A0E6B0E001C01D92A03AB1072C
:10004000E1F7FED057C1DCCFFF920F931F93CF9300
:10005000DF9300D000D01F92CDB7DEB78C0197FFA1
:1000600005C08DE2CDD0119501951109F12C2AE042
:1000700030E0E1E0F0E0EC0FFD1FEF0DF11DC801F5
:10008000B90111D1805D8083F3948B0161157105F5
:1000900081F706C0FE01EF0DF11D8081B1D0FA9409
:1000A000F110F8CF0F900F900F900F900F90DF91FD
:1000B000CF911F910F91FF900895CF93DF93EC01A3
:1000C00002C09ED02196FE0184918111FACFDF916A
:1000D000CF9108958DE094D08AE092C027B18F70BF
:1000E0009927207F282B27B9369A349BFECF24B13D
:1000F00035B1C901089510BE88E08FBD17BC16BC8C
:1001000010B819BC83E085BD8FEF8BBD80B78268C6
:1001100080BFB99A80B7816280BFBB9A87B589607A
:1001200087BDBD9A08959C0177FD05C0611584E0E7
:10013000780724F405C060E070E002C06FEF73E060
:10014000CB0162E170E0AFD06E5B7F4F15BC211533
:10015000310511F46DBD08952130310511F46CBDE8
:1001600008952230310509F46ABD089510BE84E077
:100170008FBD17BC16BC10B819BC83E085BD8FEFCE
:100180008BBD80B7826880BFB99A80B7816280BF1B
:10019000BB9A87B5896087BDBD9A0895272F3327FD
:1001A00027FD3A9525BD009711F46DBD0895813066
:1001B000910511F46CBD0895029709F46ABD089584
:1001C0001FC03CD090E0089539D090E0089507C05A
:1001D000EFECF7E03197F1F700C0000001970097CE
:1001E000B9F7089505C022E02A95F1F700C00197FC
:1001F0000097C9F70895BC9AC49ABE98C69A089504
:10020000C498EFE3F3E03197F1F700C0000098E005
:1002100080FF02C0C49A01C0C498EFE3F3E03197B5
:10022000F1F700C000008695915091F7C49A8FE3D2
:1002300093E00197F1F700C00000089580E0089571
:1002400017B887E886B989E88ABB8FE287BB8BB38A
:1002500080658BBB88B3806588BBCDDF60919A00D9
:1002600070919B0080919C0090919D000AD090938A
:100270009F0080939E0000000000099580E090E0C0
:1002800008955527002480FF02C0060E571F660FF1
:10029000771F6115710521F096958795009799F75D
:1002A000952F802D089597FB072E16F4009406D005
:1002B00077FD08D00BD007FC05D03EF490958195D2
:1002C0009F4F0895709561957F4F0895AA1BBB1BA2
:1002D00051E107C0AA1FBB1FA617B70710F0A61B46
:1002E000B70B881F991F5A95A9F780959095BC0167
:0802F000CD010895F894FFCF41
:00000001FF
