:1000000010C01FC01EC01DC01CC01BC01AC019C01C
:1000100018C017C016C015C014C013C012C011C03C
:1000200010C011241FBECFE5D1E0DEBFCDBF10E070
:10003000A0E6B0E001C01D92A03EB107E1F79DD05F
:10004000F4C0DECFFF920F931F93CF93DF9300D0C6
:1000500000D01F92CDB7DEB78C0197FF05C08DE2AF
:100060006CD0119501951109F12C2AE030E0E1E006
:10007000F0E0EC0FFD1FEF0DF11DC801B901AED08E
:10008000805D8083F3948B016115710581F706C053
:10009000FE01EF0DF11D808150D0FA94F110F8CFE0
:1000A0000F900F900F900F900F90DF91CF911F91B5
:1000B0000F91FF900895CF93DF93EC0102C03DD0E4
:1000C0002196FE0184918111FACFDF91CF9108959D
:1000D0008DE033D08AE031C027B18F709927207F1F
:1000E000282B27B9369A349BFECF24B135B1C901EC
:1000F000089508950895089508951FC03CD090E094
:10010000089539D090E0089507C0EFECF7E03197FB
:10011000F1F700C0000001970097B9F7089505C0F6
:1001200022E02A95F1F700C001970097C9F70895DA
:10013000B99AC19ABA98C29A0895C198EFE3F3E0C8
:100140003197F1F700C0000098E080FF02C0C19A2B
:1001500001C0C198EFE3F3E03197F1F700C0000070
:100160008695915091F7C19A8FE393E00197F1F74B
:1001700000C00000089580E0089517B887E886B9A8
:100180008AB387608ABB81E087BB8BB3806C8BBBF3
:10019000CFDF6091DA007091DB008091DC009091FC
:1001A000DD000AD09093DF008093DE0000000000A5
:1001B000099580E090E008955527002480FF02C053
:1001C000060E571F660F771F6115710521F0969572
:1001D0008795009799F7952F802D089597FB072E07
:1001E00016F4009406D077FD08D00BD007FC05D09C
:1001F0003EF4909581959F4F0895709561957F4F3E
:100200000895AA1BBB1B51E107C0AA1FBB1FA6175D
:10021000B70710F0A61BB70B881F991F5A95A9F7AF
:0E02200080959095BC01CD010895F894FFCF14
:00000001FF
