:1000000010C01FC01EC01DC01CC01BC01AC019C01C
:1000100018C017C016C015C014C013C012C011C03C
:1000200010C011241FBECFE5D1E0DEBFCDBF20E060
:10003000A0E6B0E001C01D92A03AB207E1F79DD062
:10004000F3C0DECFFF920F931F93CF93DF9300D0C7
:1000500000D01F92CDB7DEB78C0197FF05C08DE2AF
:100060006CD011950195110980E02AE030E0FF2461
:10007000F394F80EE1E0F0E0EC0FFD1FE80FF11D46
:10008000C801B901AAD0805D80838B01611571051B
:1000900011F08F2DECCFFF2039F0FE01EF0DF11D97
:1000A00080814BD0FA94F7CF0F900F900F900F9064
:1000B0000F90DF91CF911F910F91FF900895CF93F3
:1000C000DF93EC01FE018491882319F036D021964C
:1000D000F9CFDF91CF9108958AE02FC097B18F704B
:1000E000907F892B87B9369A349BFECF84B195B126
:1000F000089508950895089508951FC03CD090E094
:10010000089539D090E00895009741F0EFECF7E0C2
:100110003197F1F700C000000197F6CF08950097DE
:1001200031F022E02A95F1F700C00197F8CF089549
:10013000B99AC19ABA98C29A0895C198EFE3F3E0C8
:100140003197F1F700C0000098E080FF02C0C19A2B
:1001500001C0C198EFE3F3E03197F1F700C0000070
:100160008695915091F7C19A8FE393E00197F1F74B
:1001700000C00000089580E0089517B887E886B9A8
:100180008AB387608ABB81E087BB8BB3806C8BBBF3
:10019000CFDF60919A0070919B0080919C009091BC
:1001A0009D000AD090939F0080939E000000000065
:1001B000099580E090E008950024552704C0080EBA
:1001C000591F880F991F009729F076956795B8F306
:1001D0007105B9F7802D952F089597FB072E16F41A
:1001E000009406D077FD08D00BD007FC05D03EF474
:1001F000909581959F4F0895709561957F4F0895D3
:10020000AA1BBB1B51E107C0AA1FBB1FA617B7073C
:1002100010F0A61BB70B881F991F5A95A9F7809558
:0C0220009095BC01CD010895F894FFCF2B
:00000001FF
