:100000000C9434000C9446000C9446000C9446006A
:100010000C9446000C9446000C9446000C94460048
:100020000C9446000C9446000C9446000C94460038
:100030000C9446000C9446000C9446000C94460028
:100040000C9446000C9446000C9446000C94460018
:100050000C9446000C9446000C9446000C94460008
:100060000C9446000C94460011241FBECFEFD8E03C
:10007000DEBFCDBF21E0A0E0B1E001C01D92A03401
:10008000B207E1F70E94F4000C9439010C940000CF
:100090009091C00095FFFCCF8093C6000895809199
:1000A000C00087FFFCCF8091C60090E0089580914A
:1000B000C00087FF04C08091C60090E0089580E0F2
:1000C00090E008959C01269FC001279F900D369FC8
:1000D000900D11240895FF920F931F93CF93DF93F8
:1000E00000D000D01F92CDB7DEB78C0197FF07C0BC
:1000F0008DE290E00E94480011950195110980E081
:100100002AE030E0FF24F394F80EE1E0F0E0EC0F99
:10011000FD1FE80FF11DC801B9010E941101805DAA
:1001200080838B016115710511F08F2DEBCFFF20BE
:1001300049F0FE01EF0DF11D808190E00E94480022
:10014000FA94F5CF0F900F900F900F900F90DF91D2
:10015000CF911F910F91FF900895CF93DF93EC0102
:10016000FE018491882329F090E00E9448002196A6
:10017000F7CFDF91CF9108958AE090E00C9448008A
:1001800090917C008F70907F892B80937C00809170
:100190007A00806480937A0080917A0084FFFCCF9B
:1001A00080917800909179000895089508950895B8
:1001B000089599270C9448000C944F000C94570014
:1001C000009741F0EFE9FFE03197F1F700C0000040
:1001D0000197F6CF0895009731F025E02A95F1F7C1
:1001E00000000197F8CF089580E480937C0087E8B1
:1001F00080937A001092C50087E68093C40086E061
:100200008093C20088E18093C10017B88FEF84B952
:1002100089B18C6F89B900000000099580E090E0F9
:10022000089597FB072E16F4009407D077FD09D0A8
:100230000E94250107FC05D03EF4909581959F4FC3
:100240000895709561957F4F0895AA1BBB1B51E1DE
:1002500007C0AA1FBB1FA617B70710F0A61BB70B36
:10026000881F991F5A95A9F780959095BC01CD01DB
:060270000895F894FFCF91
:00000001FF
