:100000000C9434000C9446000C9446000C9446006A
:100010000C9446000C9446000C9446000C94460048
:100020000C9446000C9446000C9446000C94460038
:100030000C9446000C9446000C9446000C94460028
:100040000C9446000C9446000C9446000C94460018
:100050000C9446000C9446000C9446000C94460008
:100060000C9446000C94460011241FBECFEFD8E03C
:10007000DEBFCDBF11E0A0E0B1E001C01D92A03411
:10008000B107E1F70E9432010C948A010C94000040
:10009000869F9001879F300D969F300D1124C901D6
:1000A00008959091C00095FFFCCF8093C6000895FD
:1000B0008091C00087FFFCCF8091C60090E008953A
:1000C0008091C00087FF04C02091C60030E002C0CC
:1000D00020E030E0C9010895FF920F931F93CF9362
:1000E000DF9300D000D01F92CDB7DEB78C0197FF11
:1000F00007C08DE290E00E94510011950195110911
:10010000F12C2AE030E0E1E0F0E0EC0FFD1FEF0D14
:10011000F11DC801B9010E946201805D8083F394E2
:100120008B016115710579F708C0FE01EF0DF11D16
:10013000808190E00E945100FA94F110F6CF0F9068
:100140000F900F900F900F90DF91CF911F910F9113
:10015000FF900895CF93DF93EC0104C090E00E94DC
:1001600051002196FE0184918111F8CFDF91CF914A
:1001700008958DE090E00E9451008AE090E00C9498
:10018000510099270C9451000C9458000C94600075
:1001900007C0EFECF7E03197F1F700C000000197DE
:1001A0000097B9F7089505C022E02A95F1F700C03D
:1001B00001970097C9F7089558B121E030E0082E63
:1001C00001C0220F0A94EAF7422F4095452348B90F
:1001D00040917C008F709927407F482B40937C0092
:1001E00080917A00806480937A0080917A0084FF05
:1001F000FCCF88B1822388B92091780030917900B2
:10020000C901089544E1469F9001479F300D112494
:100210002053384F009741F4309389002093880091
:1002200080918000806809C0019749F430938B0069
:1002300020938A00809180008062809380000895DE
:10024000009731F46093B4008091B000806207C0E1
:10025000019739F46093B3008091B0008068809377
:10026000B00008958CE38AB980EC8BB98FE384B930
:1002700088B980E480937C0087E880937A001092AC
:10028000C50083E38093C40086E08093C20088E1C8
:100290008093C1008FEF9FEF90938700809386003B
:1002A00082E08093800082E18093810083E08093EC
:1002B000B00085E08093B10000000000099580E067
:1002C00090E0089597FB072E16F4009407D077FD71
:1002D00009D00E94760107FC05D03EF490958195E7
:1002E0009F4F0895709561957F4F0895AA1BBB1B82
:1002F00051E107C0AA1FBB1FA617B70710F0A61B26
:10030000B70B881F991F5A95A9F780959095BC0146
:08031000CD010895F894FFCF20
:00000001FF
